{
  "address": "0xDc64a140Aa3E981100a9becA4E685f962f0cF6C9",
  "abi": [
    {
      "inputs": [
        {
          "internalType": "uint256",
          "name": "minStake",
          "type": "uint256"
        },
        {
          "internalType": "uint64",
          "name": "subscriptionId",
          "type": "uint64"
        },
        {
          "internalType": "address",
          "name": "vrfCoordinatorAddress",
          "type": "address"
        },
        {
          "internalType": "bytes32",
          "name": "keyHash",
          "type": "bytes32"
        },
        {
          "internalType": "uint256",
          "name": "eventDuration",
          "type": "uint256"
        }
      ],
      "stateMutability": "nonpayable",
      "type": "constructor"
    },
    {
      "inputs": [
        {
          "internalType": "uint256",
          "name": "timeRemaining",
          "type": "uint256"
        }
      ],
      "name": "Lottery__EventInProgress",
      "type": "error"
    },
    {
      "inputs": [
        {
          "internalType": "uint256",
          "name": "_minStake",
          "type": "uint256"
        }
      ],
      "name": "Lottery__NotEnoughStake",
      "type": "error"
    },
    {
      "inputs": [],
      "name": "Lottery__StakingNotOpen",
      "type": "error"
    },
    {
      "inputs": [
        {
          "internalType": "uint256",
          "name": "totalStakesForCurrentEvent",
          "type": "uint256"
        },
        {
          "internalType": "uint256",
          "name": "playersLength",
          "type": "uint256"
        },
        {
          "internalType": "uint8",
          "name": "lotteryState",
          "type": "uint8"
        },
        {
          "internalType": "uint256",
          "name": "timeRemaining",
          "type": "uint256"
        }
      ],
      "name": "Lottery__UpKeepNotNeeded",
      "type": "error"
    },
    {
      "inputs": [
        {
          "internalType": "address",
          "name": "have",
          "type": "address"
        },
        {
          "internalType": "address",
          "name": "want",
          "type": "address"
        }
      ],
      "name": "OnlyCoordinatorCanFulfill",
      "type": "error"
    },
    {
      "anonymous": false,
      "inputs": [
        {
          "indexed": true,
          "internalType": "address",
          "name": "previousOwner",
          "type": "address"
        },
        {
          "indexed": true,
          "internalType": "address",
          "name": "newOwner",
          "type": "address"
        }
      ],
      "name": "OwnershipTransferred",
      "type": "event"
    },
    {
      "anonymous": false,
      "inputs": [
        {
          "indexed": true,
          "internalType": "address",
          "name": "player",
          "type": "address"
        },
        {
          "indexed": false,
          "internalType": "uint256",
          "name": "amount",
          "type": "uint256"
        }
      ],
      "name": "PlayerStaked",
      "type": "event"
    },
    {
      "anonymous": false,
      "inputs": [
        {
          "indexed": true,
          "internalType": "uint256",
          "name": "requestId",
          "type": "uint256"
        }
      ],
      "name": "RequestSent",
      "type": "event"
    },
    {
      "anonymous": false,
      "inputs": [
        {
          "indexed": true,
          "internalType": "address",
          "name": "winner",
          "type": "address"
        },
        {
          "indexed": false,
          "internalType": "uint256",
          "name": "winnerIndex",
          "type": "uint256"
        },
        {
          "indexed": false,
          "internalType": "uint256",
          "name": "amount",
          "type": "uint256"
        }
      ],
      "name": "WinnerSelected",
      "type": "event"
    },
    {
      "anonymous": false,
      "inputs": [
        {
          "indexed": true,
          "internalType": "address",
          "name": "winner",
          "type": "address"
        },
        {
          "indexed": false,
          "internalType": "uint256",
          "name": "amount",
          "type": "uint256"
        }
      ],
      "name": "WinnerWithdraw",
      "type": "event"
    },
    {
      "inputs": [],
      "name": "COORDINATOR",
      "outputs": [
        {
          "internalType": "contract VRFCoordinatorV2Interface",
          "name": "",
          "type": "address"
        }
      ],
      "stateMutability": "view",
      "type": "function"
    },
    {
      "inputs": [
        {
          "internalType": "bytes",
          "name": "",
          "type": "bytes"
        }
      ],
      "name": "checkUpkeep",
      "outputs": [
        {
          "internalType": "bool",
          "name": "upkeepNeeded",
          "type": "bool"
        },
        {
          "internalType": "bytes",
          "name": "",
          "type": "bytes"
        }
      ],
      "stateMutability": "view",
      "type": "function"
    },
    {
      "inputs": [
        {
          "internalType": "uint256",
          "name": "index",
          "type": "uint256"
        }
      ],
      "name": "getPlayer",
      "outputs": [
        {
          "internalType": "address",
          "name": "",
          "type": "address"
        }
      ],
      "stateMutability": "view",
      "type": "function"
    },
    {
      "inputs": [],
      "name": "getPlayersLength",
      "outputs": [
        {
          "internalType": "uint256",
          "name": "",
          "type": "uint256"
        }
      ],
      "stateMutability": "view",
      "type": "function"
    },
    {
      "inputs": [],
      "name": "getTheRandomNumber",
      "outputs": [
        {
          "internalType": "uint256",
          "name": "",
          "type": "uint256"
        }
      ],
      "stateMutability": "view",
      "type": "function"
    },
    {
      "inputs": [
        {
          "internalType": "address",
          "name": "winner",
          "type": "address"
        }
      ],
      "name": "getWinnerProceeds",
      "outputs": [
        {
          "internalType": "uint256",
          "name": "",
          "type": "uint256"
        }
      ],
      "stateMutability": "view",
      "type": "function"
    },
    {
      "inputs": [],
      "name": "i_eventDuration",
      "outputs": [
        {
          "internalType": "uint256",
          "name": "",
          "type": "uint256"
        }
      ],
      "stateMutability": "view",
      "type": "function"
    },
    {
      "inputs": [],
      "name": "i_minStake",
      "outputs": [
        {
          "internalType": "uint256",
          "name": "",
          "type": "uint256"
        }
      ],
      "stateMutability": "view",
      "type": "function"
    },
    {
      "inputs": [],
      "name": "owner",
      "outputs": [
        {
          "internalType": "address",
          "name": "",
          "type": "address"
        }
      ],
      "stateMutability": "view",
      "type": "function"
    },
    {
      "inputs": [
        {
          "internalType": "bytes",
          "name": "",
          "type": "bytes"
        }
      ],
      "name": "performUpkeep",
      "outputs": [],
      "stateMutability": "nonpayable",
      "type": "function"
    },
    {
      "inputs": [
        {
          "internalType": "uint256",
          "name": "requestId",
          "type": "uint256"
        },
        {
          "internalType": "uint256[]",
          "name": "randomWords",
          "type": "uint256[]"
        }
      ],
      "name": "rawFulfillRandomWords",
      "outputs": [],
      "stateMutability": "nonpayable",
      "type": "function"
    },
    {
      "inputs": [],
      "name": "renounceOwnership",
      "outputs": [],
      "stateMutability": "nonpayable",
      "type": "function"
    },
    {
      "inputs": [],
      "name": "requestNumber",
      "outputs": [
        {
          "internalType": "uint256",
          "name": "requestId",
          "type": "uint256"
        }
      ],
      "stateMutability": "nonpayable",
      "type": "function"
    },
    {
      "inputs": [],
      "name": "s_lastWinner",
      "outputs": [
        {
          "internalType": "address",
          "name": "",
          "type": "address"
        }
      ],
      "stateMutability": "view",
      "type": "function"
    },
    {
      "inputs": [],
      "name": "s_lotteryState",
      "outputs": [
        {
          "internalType": "enum Lottery.LotteryState",
          "name": "",
          "type": "uint8"
        }
      ],
      "stateMutability": "view",
      "type": "function"
    },
    {
      "inputs": [
        {
          "internalType": "uint256",
          "name": "",
          "type": "uint256"
        }
      ],
      "name": "s_lotteryWinners",
      "outputs": [
        {
          "internalType": "address",
          "name": "",
          "type": "address"
        }
      ],
      "stateMutability": "view",
      "type": "function"
    },
    {
      "inputs": [],
      "name": "s_lotteryWinnersCount",
      "outputs": [
        {
          "internalType": "uint256",
          "name": "",
          "type": "uint256"
        }
      ],
      "stateMutability": "view",
      "type": "function"
    },
    {
      "inputs": [
        {
          "internalType": "uint256",
          "name": "",
          "type": "uint256"
        }
      ],
      "name": "s_players",
      "outputs": [
        {
          "internalType": "address",
          "name": "",
          "type": "address"
        }
      ],
      "stateMutability": "view",
      "type": "function"
    },
    {
      "inputs": [
        {
          "internalType": "uint256",
          "name": "",
          "type": "uint256"
        }
      ],
      "name": "s_randomWords",
      "outputs": [
        {
          "internalType": "uint256",
          "name": "",
          "type": "uint256"
        }
      ],
      "stateMutability": "view",
      "type": "function"
    },
    {
      "inputs": [],
      "name": "s_totalStakesForCurrentEvent",
      "outputs": [
        {
          "internalType": "uint256",
          "name": "",
          "type": "uint256"
        }
      ],
      "stateMutability": "view",
      "type": "function"
    },
    {
      "inputs": [
        {
          "internalType": "address",
          "name": "",
          "type": "address"
        }
      ],
      "name": "s_winnerProceeds",
      "outputs": [
        {
          "internalType": "uint256",
          "name": "",
          "type": "uint256"
        }
      ],
      "stateMutability": "view",
      "type": "function"
    },
    {
      "inputs": [],
      "name": "stake",
      "outputs": [],
      "stateMutability": "payable",
      "type": "function"
    },
    {
      "inputs": [],
      "name": "startLottery",
      "outputs": [],
      "stateMutability": "nonpayable",
      "type": "function"
    },
    {
      "inputs": [
        {
          "internalType": "address",
          "name": "newOwner",
          "type": "address"
        }
      ],
      "name": "transferOwnership",
      "outputs": [],
      "stateMutability": "nonpayable",
      "type": "function"
    },
    {
      "inputs": [],
      "name": "withdrawProceeds",
      "outputs": [],
      "stateMutability": "nonpayable",
      "type": "function"
    }
  ],
  "transactionHash": "0x84b5a2a22c8b161659c5d28104f3f95fb40336b7b33307fb49eccd66ca98f69f",
  "args": [
    "1000000000000000000",
    "1",
    "0x5FbDB2315678afecb367f032d93F642f64180aa3",
    "0xd89b2bf150e3b9e13446986e571fb9cab24b13cea0a43ea20a6049a85cc807cc",
    604800
  ],
  "numDeployments": 1,
  "solcInputHash": "2ee59a4cd717689029ffa91571514256",
  "bytecode": "0x610160604052620f424063ffffffff166101009063ffffffff16815250600263ffffffff166101209063ffffffff168152503480156200003e57600080fd5b506040516200249d3803806200249d833981810160405281019062000064919062000334565b8262000085620000796200014360201b60201c565b6200014b60201b60201c565b8073ffffffffffffffffffffffffffffffffffffffff1660808173ffffffffffffffffffffffffffffffffffffffff1681525050508460a081815250508367ffffffffffffffff1660e08167ffffffffffffffff16815250508161014081815250508060c0818152505082600460016101000a81548173ffffffffffffffffffffffffffffffffffffffff021916908373ffffffffffffffffffffffffffffffffffffffff16021790555060006002819055505050505050620003bc565b600033905090565b60008060009054906101000a900473ffffffffffffffffffffffffffffffffffffffff169050816000806101000a81548173ffffffffffffffffffffffffffffffffffffffff021916908373ffffffffffffffffffffffffffffffffffffffff1602179055508173ffffffffffffffffffffffffffffffffffffffff168173ffffffffffffffffffffffffffffffffffffffff167f8be0079c531659141344cd1fd0a4f28419497f9722a3daafe3b4186f6b6457e060405160405180910390a35050565b600080fd5b6000819050919050565b620002298162000214565b81146200023557600080fd5b50565b60008151905062000249816200021e565b92915050565b600067ffffffffffffffff82169050919050565b6200026e816200024f565b81146200027a57600080fd5b50565b6000815190506200028e8162000263565b92915050565b600073ffffffffffffffffffffffffffffffffffffffff82169050919050565b6000620002c18262000294565b9050919050565b620002d381620002b4565b8114620002df57600080fd5b50565b600081519050620002f381620002c8565b92915050565b6000819050919050565b6200030e81620002f9565b81146200031a57600080fd5b50565b6000815190506200032e8162000303565b92915050565b600080600080600060a086880312156200035357620003526200020f565b5b6000620003638882890162000238565b955050602062000376888289016200027d565b94505060406200038988828901620002e2565b93505060606200039c888289016200031d565b9250506080620003af8882890162000238565b9150509295509295909350565b60805160a05160c05160e0516101005161012051610140516120636200043a6000396000610de701526000610e4c01526000610e2b01526000610e080152600081816105bc015281816106290152610af40152600081816105e0015281816107da015261080201526000818161071a015261076e01526120636000f3fe6080604052600436106101665760003560e01c80638da5cb5b116100d1578063d4c8c3731161008a578063ed8a64a211610064578063ed8a64a2146104ec578063f2fde38b14610517578063f6eaffc814610540578063faff2eeb1461057d57610166565b8063d4c8c37314610459578063df31d85214610484578063e55ae4e8146104af57610166565b80638da5cb5b146103595780639038e69314610384578063ae771f6b1461039b578063c8932c88146103d8578063cd61386d14610403578063cfd1a7e21461042e57610166565b80633b2bcbf1116101235780633b2bcbf11461024857806340f6c003146102735780634585e33b146102b05780636dda37bb146102d95780636e04ff0d14610304578063715018a61461034257610166565b806306a160bd1461016b5780630899ae0314610196578063160344e2146101c15780631a1f82ca146101d85780631fe543e3146102155780633a4b66f11461023e575b600080fd5b34801561017757600080fd5b506101806105ba565b60405161018d9190611582565b60405180910390f35b3480156101a257600080fd5b506101ab6105de565b6040516101b89190611582565b60405180910390f35b3480156101cd57600080fd5b506101d6610602565b005b3480156101e457600080fd5b506101ff60048036038101906101fa91906115dd565b6106d9565b60405161020c919061164b565b60405180910390f35b34801561022157600080fd5b5061023c600480360381019061023791906117bf565b610718565b005b6102466107d8565b005b34801561025457600080fd5b5061025d610996565b60405161026a919061187a565b60405180910390f35b34801561027f57600080fd5b5061029a600480360381019061029591906118c1565b6109bc565b6040516102a79190611582565b60405180910390f35b3480156102bc57600080fd5b506102d760048036038101906102d29190611949565b610a05565b005b3480156102e557600080fd5b506102ee610aac565b6040516102fb9190611582565b60405180910390f35b34801561031057600080fd5b5061032b60048036038101906103269190611a4b565b610ab2565b604051610339929190611b2e565b60405180910390f35b34801561034e57600080fd5b50610357610b9b565b005b34801561036557600080fd5b5061036e610baf565b60405161037b919061164b565b60405180910390f35b34801561039057600080fd5b50610399610bd8565b005b3480156103a757600080fd5b506103c260048036038101906103bd91906115dd565b610d32565b6040516103cf919061164b565b60405180910390f35b3480156103e457600080fd5b506103ed610d71565b6040516103fa9190611582565b60405180910390f35b34801561040f57600080fd5b50610418610d98565b6040516104259190611582565b60405180910390f35b34801561043a57600080fd5b50610443610da5565b6040516104509190611582565b60405180910390f35b34801561046557600080fd5b5061046e610f00565b60405161047b9190611bd5565b60405180910390f35b34801561049057600080fd5b50610499610f13565b6040516104a6919061164b565b60405180910390f35b3480156104bb57600080fd5b506104d660048036038101906104d191906115dd565b610f39565b6040516104e3919061164b565b60405180910390f35b3480156104f857600080fd5b50610501610f81565b60405161050e9190611582565b60405180910390f35b34801561052357600080fd5b5061053e600480360381019061053991906118c1565b610f87565b005b34801561054c57600080fd5b50610567600480360381019061056291906115dd565b61100a565b6040516105749190611582565b60405180910390f35b34801561058957600080fd5b506105a4600480360381019061059f91906118c1565b61102e565b6040516105b19190611582565b60405180910390f35b7f000000000000000000000000000000000000000000000000000000000000000081565b7f000000000000000000000000000000000000000000000000000000000000000081565b61060a611046565b60006001805490501115610627576001600061062691906114de565b5b7f0000000000000000000000000000000000000000000000000000000000000000600354426106569190611c1f565b116106a557600354426106699190611c1f565b6040517ff09b7be200000000000000000000000000000000000000000000000000000000815260040161069c9190611582565b60405180910390fd5b426003819055506000600460006101000a81548160ff021916908360028111156106d2576106d1611b5e565b5b0217905550565b600881815481106106e957600080fd5b906000526020600020016000915054906101000a900473ffffffffffffffffffffffffffffffffffffffff1681565b7f000000000000000000000000000000000000000000000000000000000000000073ffffffffffffffffffffffffffffffffffffffff163373ffffffffffffffffffffffffffffffffffffffff16146107ca57337f00000000000000000000000000000000000000000000000000000000000000006040517f1cf993f40000000000000000000000000000000000000000000000000000000081526004016107c1929190611c53565b60405180910390fd5b6107d482826110c4565b5050565b7f000000000000000000000000000000000000000000000000000000000000000034101561085d577f00000000000000000000000000000000000000000000000000000000000000006040517f227e2cad0000000000000000000000000000000000000000000000000000000081526004016108549190611582565b60405180910390fd5b6000600281111561087157610870611b5e565b5b600460009054906101000a900460ff16600281111561089357610892611b5e565b5b146108ca576040517fad9894df00000000000000000000000000000000000000000000000000000000815260040160405180910390fd5b6001339080600181540180825580915050600190039060005260206000200160009091909190916101000a81548173ffffffffffffffffffffffffffffffffffffffff021916908373ffffffffffffffffffffffffffffffffffffffff160217905550346002600082825461093f9190611c7c565b925050819055503373ffffffffffffffffffffffffffffffffffffffff167f908d2ee86a5683ae8fcbed4b78856708b8e0d3a70feed3e28bc72b01c18ecee63460405161098c9190611582565b60405180910390a2565b600460019054906101000a900473ffffffffffffffffffffffffffffffffffffffff1681565b6000600560008373ffffffffffffffffffffffffffffffffffffffff1673ffffffffffffffffffffffffffffffffffffffff168152602001908152602001600020549050919050565b6000610a1f60405180602001604052806000815250610ab2565b50905080610a9f57600254600180549050600460009054906101000a900460ff166002811115610a5257610a51611b5e565b5b60035442610a609190611c1f565b6040517fab69ec2c000000000000000000000000000000000000000000000000000000008152600401610a969493929190611ccc565b60405180910390fd5b610aa7611391565b505050565b60095481565b600060606000806002811115610acb57610aca611b5e565b5b600460009054906101000a900460ff166002811115610aed57610aec611b5e565b5b14905060007f000000000000000000000000000000000000000000000000000000000000000060035442610b219190611c1f565b119050600080600180549050119050600080600254119050838015610b435750825b8015610b4c5750815b8015610b555750805b9550856040518060400160405280600381526020017f30783000000000000000000000000000000000000000000000000000000000008152509550955050505050915091565b610ba3611046565b610bad60006113c7565b565b60008060009054906101000a900473ffffffffffffffffffffffffffffffffffffffff16905090565b3373ffffffffffffffffffffffffffffffffffffffff167f30feb9cca70a47eaac8989afbf877fcbd223cc28379154f2501d66e410c09762600560003373ffffffffffffffffffffffffffffffffffffffff1673ffffffffffffffffffffffffffffffffffffffff16815260200190815260200160002054604051610c5d9190611582565b60405180910390a26000600560003373ffffffffffffffffffffffffffffffffffffffff1673ffffffffffffffffffffffffffffffffffffffff168152602001908152602001600020819055503373ffffffffffffffffffffffffffffffffffffffff166108fc600560003373ffffffffffffffffffffffffffffffffffffffff1673ffffffffffffffffffffffffffffffffffffffff168152602001908152602001600020549081150290604051600060405180830381858888f19350505050158015610d2f573d6000803e3d6000fd5b50565b60018181548110610d4257600080fd5b906000526020600020016000915054906101000a900473ffffffffffffffffffffffffffffffffffffffff1681565b60006007600081548110610d8857610d87611d11565b5b9060005260206000200154905090565b6000600180549050905090565b6000600460019054906101000a900473ffffffffffffffffffffffffffffffffffffffff1673ffffffffffffffffffffffffffffffffffffffff16635d3b1d307f00000000000000000000000000000000000000000000000000000000000000007f000000000000000000000000000000000000000000000000000000000000000060037f00000000000000000000000000000000000000000000000000000000000000007f00000000000000000000000000000000000000000000000000000000000000006040518663ffffffff1660e01b8152600401610e8b959493929190611db8565b6020604051808303816000875af1158015610eaa573d6000803e3d6000fd5b505050506040513d601f19601f82011682018060405250810190610ece9190611e20565b9050807f0cd21a41891ff04ecd9a8754bec97e2fb85d2a4e7694329d4dc364c796f23d0660405160405180910390a290565b600460009054906101000a900460ff1681565b600660009054906101000a900473ffffffffffffffffffffffffffffffffffffffff1681565b600060018281548110610f4f57610f4e611d11565b5b9060005260206000200160009054906101000a900473ffffffffffffffffffffffffffffffffffffffff169050919050565b60025481565b610f8f611046565b600073ffffffffffffffffffffffffffffffffffffffff168173ffffffffffffffffffffffffffffffffffffffff1603610ffe576040517f08c379a0000000000000000000000000000000000000000000000000000000008152600401610ff590611ed0565b60405180910390fd5b611007816113c7565b50565b6007818154811061101a57600080fd5b906000526020600020016000915090505481565b60056020528060005260406000206000915090505481565b61104e61148b565b73ffffffffffffffffffffffffffffffffffffffff1661106c610baf565b73ffffffffffffffffffffffffffffffffffffffff16146110c2576040517f08c379a00000000000000000000000000000000000000000000000000000000081526004016110b990611f3c565b60405180910390fd5b565b80600790805190602001906110da9291906114ff565b50600060018054905060076000815481106110f8576110f7611d11565b5b906000526020600020015461110d9190611f8b565b9050600254600560006001848154811061112a57611129611d11565b5b9060005260206000200160009054906101000a900473ffffffffffffffffffffffffffffffffffffffff1673ffffffffffffffffffffffffffffffffffffffff1673ffffffffffffffffffffffffffffffffffffffff16815260200190815260200160002081905550600181815481106111a7576111a6611d11565b5b9060005260206000200160009054906101000a900473ffffffffffffffffffffffffffffffffffffffff16600660006101000a81548173ffffffffffffffffffffffffffffffffffffffff021916908373ffffffffffffffffffffffffffffffffffffffff160217905550600660009054906101000a900473ffffffffffffffffffffffffffffffffffffffff1673ffffffffffffffffffffffffffffffffffffffff167f866efae43947560fe9d0de9013bc323d5718730d5c1543261b48a7bcb0717b9360095460056000600660009054906101000a900473ffffffffffffffffffffffffffffffffffffffff1673ffffffffffffffffffffffffffffffffffffffff1673ffffffffffffffffffffffffffffffffffffffff168152602001908152602001600020546040516112df929190611fbc565b60405180910390a26008600660009054906101000a900473ffffffffffffffffffffffffffffffffffffffff169080600181540180825580915050600190039060005260206000200160009091909190916101000a81548173ffffffffffffffffffffffffffffffffffffffff021916908373ffffffffffffffffffffffffffffffffffffffff1602179055506009600081548092919061137f90611fe5565b919050555061138c611493565b505050565b6001600460006101000a81548160ff021916908360028111156113b7576113b6611b5e565b5b02179055506113c4610da5565b50565b60008060009054906101000a900473ffffffffffffffffffffffffffffffffffffffff169050816000806101000a81548173ffffffffffffffffffffffffffffffffffffffff021916908373ffffffffffffffffffffffffffffffffffffffff1602179055508173ffffffffffffffffffffffffffffffffffffffff168173ffffffffffffffffffffffffffffffffffffffff167f8be0079c531659141344cd1fd0a4f28419497f9722a3daafe3b4186f6b6457e060405160405180910390a35050565b600033905090565b61149b611046565b600160006114a991906114de565b60006002819055506000600460006101000a81548160ff021916908360028111156114d7576114d6611b5e565b5b0217905550565b50805460008255906000526020600020908101906114fc919061154c565b50565b82805482825590600052602060002090810192821561153b579160200282015b8281111561153a57825182559160200191906001019061151f565b5b509050611548919061154c565b5090565b5b8082111561156557600081600090555060010161154d565b5090565b6000819050919050565b61157c81611569565b82525050565b60006020820190506115976000830184611573565b92915050565b6000604051905090565b600080fd5b600080fd5b6115ba81611569565b81146115c557600080fd5b50565b6000813590506115d7816115b1565b92915050565b6000602082840312156115f3576115f26115a7565b5b6000611601848285016115c8565b91505092915050565b600073ffffffffffffffffffffffffffffffffffffffff82169050919050565b60006116358261160a565b9050919050565b6116458161162a565b82525050565b6000602082019050611660600083018461163c565b92915050565b600080fd5b6000601f19601f8301169050919050565b7f4e487b7100000000000000000000000000000000000000000000000000000000600052604160045260246000fd5b6116b48261166b565b810181811067ffffffffffffffff821117156116d3576116d261167c565b5b80604052505050565b60006116e661159d565b90506116f282826116ab565b919050565b600067ffffffffffffffff8211156117125761171161167c565b5b602082029050602081019050919050565b600080fd5b600061173b611736846116f7565b6116dc565b9050808382526020820190506020840283018581111561175e5761175d611723565b5b835b81811015611787578061177388826115c8565b845260208401935050602081019050611760565b5050509392505050565b600082601f8301126117a6576117a5611666565b5b81356117b6848260208601611728565b91505092915050565b600080604083850312156117d6576117d56115a7565b5b60006117e4858286016115c8565b925050602083013567ffffffffffffffff811115611805576118046115ac565b5b61181185828601611791565b9150509250929050565b6000819050919050565b600061184061183b6118368461160a565b61181b565b61160a565b9050919050565b600061185282611825565b9050919050565b600061186482611847565b9050919050565b61187481611859565b82525050565b600060208201905061188f600083018461186b565b92915050565b61189e8161162a565b81146118a957600080fd5b50565b6000813590506118bb81611895565b92915050565b6000602082840312156118d7576118d66115a7565b5b60006118e5848285016118ac565b91505092915050565b600080fd5b60008083601f84011261190957611908611666565b5b8235905067ffffffffffffffff811115611926576119256118ee565b5b60208301915083600182028301111561194257611941611723565b5b9250929050565b600080602083850312156119605761195f6115a7565b5b600083013567ffffffffffffffff81111561197e5761197d6115ac565b5b61198a858286016118f3565b92509250509250929050565b600080fd5b600067ffffffffffffffff8211156119b6576119b561167c565b5b6119bf8261166b565b9050602081019050919050565b82818337600083830152505050565b60006119ee6119e98461199b565b6116dc565b905082815260208101848484011115611a0a57611a09611996565b5b611a158482856119cc565b509392505050565b600082601f830112611a3257611a31611666565b5b8135611a428482602086016119db565b91505092915050565b600060208284031215611a6157611a606115a7565b5b600082013567ffffffffffffffff811115611a7f57611a7e6115ac565b5b611a8b84828501611a1d565b91505092915050565b60008115159050919050565b611aa981611a94565b82525050565b600081519050919050565b600082825260208201905092915050565b60005b83811015611ae9578082015181840152602081019050611ace565b60008484015250505050565b6000611b0082611aaf565b611b0a8185611aba565b9350611b1a818560208601611acb565b611b238161166b565b840191505092915050565b6000604082019050611b436000830185611aa0565b8181036020830152611b558184611af5565b90509392505050565b7f4e487b7100000000000000000000000000000000000000000000000000000000600052602160045260246000fd5b60038110611b9e57611b9d611b5e565b5b50565b6000819050611baf82611b8d565b919050565b6000611bbf82611ba1565b9050919050565b611bcf81611bb4565b82525050565b6000602082019050611bea6000830184611bc6565b92915050565b7f4e487b7100000000000000000000000000000000000000000000000000000000600052601160045260246000fd5b6000611c2a82611569565b9150611c3583611569565b9250828203905081811115611c4d57611c4c611bf0565b5b92915050565b6000604082019050611c68600083018561163c565b611c75602083018461163c565b9392505050565b6000611c8782611569565b9150611c9283611569565b9250828201905080821115611caa57611ca9611bf0565b5b92915050565b600060ff82169050919050565b611cc681611cb0565b82525050565b6000608082019050611ce16000830187611573565b611cee6020830186611573565b611cfb6040830185611cbd565b611d086060830184611573565b95945050505050565b7f4e487b7100000000000000000000000000000000000000000000000000000000600052603260045260246000fd5b6000819050919050565b611d5381611d40565b82525050565b600067ffffffffffffffff82169050919050565b611d7681611d59565b82525050565b600061ffff82169050919050565b611d9381611d7c565b82525050565b600063ffffffff82169050919050565b611db281611d99565b82525050565b600060a082019050611dcd6000830188611d4a565b611dda6020830187611d6d565b611de76040830186611d8a565b611df46060830185611da9565b611e016080830184611da9565b9695505050505050565b600081519050611e1a816115b1565b92915050565b600060208284031215611e3657611e356115a7565b5b6000611e4484828501611e0b565b91505092915050565b600082825260208201905092915050565b7f4f776e61626c653a206e6577206f776e657220697320746865207a65726f206160008201527f6464726573730000000000000000000000000000000000000000000000000000602082015250565b6000611eba602683611e4d565b9150611ec582611e5e565b604082019050919050565b60006020820190508181036000830152611ee981611ead565b9050919050565b7f4f776e61626c653a2063616c6c6572206973206e6f7420746865206f776e6572600082015250565b6000611f26602083611e4d565b9150611f3182611ef0565b602082019050919050565b60006020820190508181036000830152611f5581611f19565b9050919050565b7f4e487b7100000000000000000000000000000000000000000000000000000000600052601260045260246000fd5b6000611f9682611569565b9150611fa183611569565b925082611fb157611fb0611f5c565b5b828206905092915050565b6000604082019050611fd16000830185611573565b611fde6020830184611573565b9392505050565b6000611ff082611569565b91507fffffffffffffffffffffffffffffffffffffffffffffffffffffffffffffffff820361202257612021611bf0565b5b60018201905091905056fea2646970667358221220bb284164cc6dca37c1a022cac6f485a829e0c4bb9bf3b7c65a36698f74a4ccbf64736f6c63430008110033",
  "devdoc": {
    "kind": "dev",
    "methods": {
      "owner()": {
        "details": "Returns the address of the current owner."
      },
      "renounceOwnership()": {
        "details": "Leaves the contract without owner. It will not be possible to call `onlyOwner` functions. Can only be called by the current owner. NOTE: Renouncing ownership will leave the contract without an owner, thereby disabling any functionality that is only available to the owner."
      },
      "transferOwnership(address)": {
        "details": "Transfers ownership of the contract to a new account (`newOwner`). Can only be called by the current owner."
      }
    },
    "version": 1
  },
  "userdoc": {
    "kind": "user",
    "methods": {},
    "version": 1
  },
  "storageLayout": {
    "storage": [
      {
        "astId": 1241,
        "contract": "contracts/Lottery.sol:Lottery",
        "label": "_owner",
        "offset": 0,
        "slot": "0",
        "type": "t_address"
      },
      {
        "astId": 1433,
        "contract": "contracts/Lottery.sol:Lottery",
        "label": "s_players",
        "offset": 0,
        "slot": "1",
        "type": "t_array(t_address)dyn_storage"
      },
      {
        "astId": 1435,
        "contract": "contracts/Lottery.sol:Lottery",
        "label": "s_totalStakesForCurrentEvent",
        "offset": 0,
        "slot": "2",
        "type": "t_uint256"
      },
      {
        "astId": 1439,
        "contract": "contracts/Lottery.sol:Lottery",
        "label": "s_eventStartedAt",
        "offset": 0,
        "slot": "3",
        "type": "t_uint256"
      },
      {
        "astId": 1455,
        "contract": "contracts/Lottery.sol:Lottery",
        "label": "s_lotteryState",
        "offset": 0,
        "slot": "4",
        "type": "t_enum(LotteryState)1404"
      },
      {
        "astId": 1458,
        "contract": "contracts/Lottery.sol:Lottery",
        "label": "COORDINATOR",
        "offset": 1,
        "slot": "4",
        "type": "t_contract(VRFCoordinatorV2Interface)370"
      },
      {
        "astId": 1462,
        "contract": "contracts/Lottery.sol:Lottery",
        "label": "s_winnerProceeds",
        "offset": 0,
        "slot": "5",
        "type": "t_mapping(t_address,t_uint256)"
      },
      {
        "astId": 1464,
        "contract": "contracts/Lottery.sol:Lottery",
        "label": "s_lastWinner",
        "offset": 0,
        "slot": "6",
        "type": "t_address"
      },
      {
        "astId": 1467,
        "contract": "contracts/Lottery.sol:Lottery",
        "label": "s_randomWords",
        "offset": 0,
        "slot": "7",
        "type": "t_array(t_uint256)dyn_storage"
      },
      {
        "astId": 1470,
        "contract": "contracts/Lottery.sol:Lottery",
        "label": "s_lotteryWinners",
        "offset": 0,
        "slot": "8",
        "type": "t_array(t_address)dyn_storage"
      },
      {
        "astId": 1472,
        "contract": "contracts/Lottery.sol:Lottery",
        "label": "s_lotteryWinnersCount",
        "offset": 0,
        "slot": "9",
        "type": "t_uint256"
      }
    ],
    "types": {
      "t_address": {
        "encoding": "inplace",
        "label": "address",
        "numberOfBytes": "20"
      },
      "t_array(t_address)dyn_storage": {
        "base": "t_address",
        "encoding": "dynamic_array",
        "label": "address[]",
        "numberOfBytes": "32"
      },
      "t_array(t_uint256)dyn_storage": {
        "base": "t_uint256",
        "encoding": "dynamic_array",
        "label": "uint256[]",
        "numberOfBytes": "32"
      },
      "t_contract(VRFCoordinatorV2Interface)370": {
        "encoding": "inplace",
        "label": "contract VRFCoordinatorV2Interface",
        "numberOfBytes": "20"
      },
      "t_enum(LotteryState)1404": {
        "encoding": "inplace",
        "label": "enum Lottery.LotteryState",
        "numberOfBytes": "1"
      },
      "t_mapping(t_address,t_uint256)": {
        "encoding": "mapping",
        "key": "t_address",
        "label": "mapping(address => uint256)",
        "numberOfBytes": "32",
        "value": "t_uint256"
      },
      "t_uint256": {
        "encoding": "inplace",
        "label": "uint256",
        "numberOfBytes": "32"
      }
    }
  }
}